:020000040800F2
:1000000030040020D51D0008E51D0008E91D00088A
:10001000ED1D0008F11D0008F51D0008000000009E
:10002000000000000000000000000000F91D0008B2
:10003000FD1D000800000000011E0008051E00084C
:10004000091E00080D1E0008111E0008151E0008DC
:10005000191E00081D1E0008211E0008251E00088C
:10006000291E00082D1E0008311E0008351E00083C
:10007000391E00083D1E0008411E0008451E0008EC
:10008000491E00084D1E0008511E0008551E00089C
:10009000591E00085D1E0008611E0008651E00084C
:1000A000691E0008950500086D1E0008711E0008F5
:1000B000751E0008791E00087D1E0008811E0008BC
:1000C000851E0008891E00088D1E0008911E00086C
:1000D000951E0008991E00089D1E0008A11E00081C
:1000E000A51E0008A91E0008AD1E0008B11E0008CC
:1000F000B51E0008B91E0008BD1E0008C11E00087C
:10010000C51E0008C91E0008CD1E0008D11E00082B
:10011000D51E0008D91E0008DD1E0008E11E0008DB
:10012000E51E0008E91E0008ED1E0008F11E00088B
:10013000F51E0008F91E0008FD1E0008011F00083A
:10014000051F0008091F00080D1F0008111F0008E7
:10015000151F0008191F00081D1F0008211F000897
:10016000251F0008291F00082D1F0008311F000847
:10017000351F0008391F00083D1F0008411F0008F7
:10018000451F0008491F0008E0B5DFF8B007006808
:1001900050F47F40DFF8A417086000F033FC0A2019
:1001A00000F06CFB00F088FB00F01EFB00F014F880
:1001B00000F0AFFD00F00BF9DFF8840700780028AD
:1001C000FAD00020DFF878170870684600F092FE39
:1001D000684600F0FAF9EFE7DFF86807006850F4C6
:1001E0008050DFF860170860DFF85C07006850F0A7
:1001F0000100DFF854170860DFF85007006850F47A
:100200008030DFF848170860DFF84407006830F4F2
:100210008070DFF83C170860DFF83807006850F49A
:100220004030DFF830170860DFF82C07006830F442
:100230004030DFF824170860DFF81007006850F43A
:100240000060DFF808170860DFF80407006830F086
:100250002000DFF8FC160860DFF8F806006850F4AC
:100260004060DFF8F0160860DFF8EC06006850F434
:100270000060DFF8E4160860DFF8E006006850F47C
:10028000A000DFF8D8160860DFF8C006006850F458
:100290000040DFF8B8160860DFF8B406006830F0F8
:1002A0008000DFF8AC160860DFF8A806006850F49C
:1002B0004040DFF8A0160860DFF89C06006850F4A4
:1002C0000040DFF894160860DFF89006006850F0F0
:1002D000A040DFF888160860DFF87006006850F468
:1002E0000050DFF868160860DFF86406006830F038
:1002F0004000DFF85C160860DFF85806006850F42C
:100300004050DFF850160860DFF84C06006850F4E3
:100310000050DFF844160860DFF84006006850F02F
:10032000A060DFF838160860DFF83406008850F067
:100330000400DFF82C160880DFF82406008840044B
:10034000400CDFF81C160880DFF8140601884FF215
:10035000FF700140DFF808060180DFF8040600881E
:1003600050F40070DFF8F8150880DFF8F405008815
:1003700050F48070DFF8E8150880DFF8E4050188A4
:100380004FF67F700140DFF8D8050180DFF8D00517
:10039000008850F02000DFF8C8150880DFF8C0059D
:1003A000008850F00200DFF8B8150880DFF8B005CB
:1003B000008850F00100DFF8A8150880DFF8A005DC
:1003C000008850F04000DFF8981508807047DFF88B
:1003D0007805006850F00200DFF86C150860DFF85F
:1003E0008405006850F40030DFF878150860DFF805
:1003F0007805006850F44030DFF86C150860DFF8CD
:100400006C05006830F48070DFF860150860DFF874
:100410006005006850F48030DFF854150860DFF89C
:100420005405006850F00300DFF848150860DFF855
:100430001405006850F40030DFF808150860DFF894
:10044000380501884FF6EF700140DFF82C05018078
:10045000DFF8240501884FF6FD700140DFF818052C
:100460000180DFF8180501884FF6FB700140DFF8C6
:100470000C050180DFF8040501884FF6F770014094
:10048000DFF8F8040180DFF8F40401884FF6EF701C
:100490000140DFF8E8040180DFF8E004008850F054
:1004A0008000DFF8D8140880DFF8D00401884FF608
:1004B000FF400140DFF8C4040180DFF8C004018878
:1004C0004FF69F700140DFF8B404018044F29F10A2
:1004D000DFF8AC14088040F6C310DFF8A8140860F9
:1004E000DFF8A404008850F00100DFF89C140880B5
:1004F000DFF8980401884FF6FC700140DFF88C04A7
:100500000180DFF8880401884FF6FB700140DFF8B6
:100510007C040180DFF8740401884FF6F770014015
:10052000DFF868040180DFF86404008850F00100FF
:10053000DFF858140880DFF85804008850F00100F4
:10054000DFF84C140880DFF8480401884FF6FD708E
:100550000140DFF83C0401804FF47A70DFF8341476
:100560000860DFF83404008850F00200DFF8281437
:100570000880DFF82804006850F00070DFF81C14D1
:100580000860DFF8F803008850F00100DFF8EC1392
:1005900008807047DFF808040088800714D5012020
:1005A000DFF89C130870DFF8F80301884FF6FD7040
:1005B0000140DFF8EC030180DFF8800300684008A9
:1005C0004000DFF87813086070472DE9F04106001D
:1005D00000200020B6F9000000280BD5B6F9000075
:1005E00000F0A4FC07002D221621012000F038FBAA
:1005F000002406E037882B221621012000F030FB72
:100600000124B6F9020000280BD5B6F9020000F06B
:100610008DFC80462D221621022000F021FB0025B2
:1006200007E0B6F802802B221621022000F018FB0A
:100630000125B6F9040000280AD5B6F9040000F037
:1006400075FC06002D221621032000F009FB05E0B1
:10065000B6882B221621032000F002FBBFB2142023
:10066000474344F2090097FBF0F71FFA88F814207B
:1006700000FB08F844F2090098FBF0F8B6B2142029
:10068000464344F2090096FBF0F6380080B20A2196
:1006900090FBF1F23032D2B21721012000F0E0FAE3
:1006A0002E221821012000F0DBFA3A0092B20A2033
:1006B00092FBF0F100FB11223032D2B2192101205D
:1006C00000F0CEFA404680B20A2190FBF1F23032BF
:1006D000D2B21721022000F0C3FA2E2218210220E4
:1006E00000F0BEFA424692B20A2092FBF0F100FB03
:1006F00011223032D2B21921022000F0B1FA3000BA
:1007000080B20A2190FBF1F23032D2B217210320DD
:1007100000F0A6FA2E221821032000F0A1FAB6B2AA
:100720000A2096FBF0F100FB116630363200D2B29F
:100730001921032000F094FA002C0DD1994800688B
:1007400010FA87F09749086096480068662810DB21
:100750006520944908600CE092480068BFB2C71B4E
:10076000904807608F480068022802DA02208D490D
:100770000860002D0DD18C48006810FA88F08A4975
:10078000086089480068732813DB72208649086076
:100790000FE0854800681FFA88F8B0EB0808824827
:1007A000C0F80080804800680E2802DA0E207E49DA
:1007B00008607FF07F4000F019F96F236E220E2150
:1007C000022000F01CFA5FF47F0000F00BF90A230E
:1007D0000A2275480068010089B27248006880B238
:1007E00000F0E6F9BDE8F0815748006850F040009D
:1007F000554908606D48006840F4AA4050F0550023
:100800006A4908606A480068000A0002684908608E
:100810006848006840F4AA4050F0550065490860F7
:100820004948006850F08000474908606248006805
:1008300080B2614908606148006880B25F49086021
:100840004148006850F020003F4908605C4800685B
:1008500050F480205A4908605A48006830F400700B
:10086000584908605848006850F48020564908608C
:1008700032480068002031490860704738B50400EC
:10088000002504E04FF47A7000F008F86D1C280091
:10089000210080B289B28842F4D331BD81B080B2E8
:1008A00011214843009002E00098401E00900098FB
:1008B0000028F9D101B0704780B57FF07F4000F08B
:1008C000BEF9424800F096F8002000F087F87FF06B
:1008D0007F4000F07FF83E4A0021002000F0D7F969
:1008E00013A21321012000F0D2F912A21321022039
:1008F00000F0CDF910A21321032000F0C8F9FF2069
:1009000000F070F870236F220D21012000F050F9E3
:100910005FF47F0000F066F80A230A220E2102200D
:1009200000F046F95FF47F0000F058F801BD0000C8
:1009300041783A0041793A00417A3A00141802406D
:1009400028000020443802403038024000000240B5
:1009500004000240080002400C0002402000024057
:100960000030014000040240080402400404024038
:100970000C040240240402400444014000440140AD
:10098000284401402C4401401444014018440140D3
:1009900020440140344401400C44014000E100E0A7
:1009A0001044014000000020040000200018024014
:1009B0000418024008180240001C02400C1C0240AF
:1009C00000140240041402400814024008000020F1
:1009D0009C1D0008DFF8701208607047DFF86C1289
:1009E00008607047DFF8681208607047DFF864122B
:1009F00008607047DFF8601208607047DFF858023F
:100A00000068704780B50020DFF83C120860DFF80E
:100A100038020068DFF83C1208607FF07F40DFF8A2
:100A20002C120860DFF824020068DFF82412086046
:100A3000DFF82802DFF82012086000F061FB7FF089
:100A40007F4000F0FCF801BD2DE9F0411400DFF813
:100A500008221268928812FA80F2A02A52DADFF88D
:100A6000F8211268D2885218531E9BB2DFF8E82191
:100A7000126892881218521E92B289B280B200F0A7
:100A800037FCDFF8D40100688088082804DADFF832
:100A9000C8010068858800E0082500F053FA0026A8
:100AA00000E0761C3000DFF8B0110968098980B2D7
:100AB000884225D2DFF8A001006801682200D2B286
:100AC000DFF8940100680089424312FA86F00F5C57
:100AD0005FF0000805E0DFF87001006800F037FA09
:100AE0000AE0280080B28045DBDA3806F3D5DFF86B
:100AF0005C01006800F02BFA7F0018F10108F0E7B4
:100B000000F036FABDE8F081F8B504000D001600DB
:100B1000002710E03278290089B23B009BB2DFF851
:100B2000380100688088434313FA84F080B2FFF7ED
:100B30008BFF761C7F1C30780028EBD1F1BD38B5D7
:100B40000B0014009BB2221892B2190089B280B235
:100B500000F0CEFB00F0F6F9002504E03C48006808
:100B600000F0F5F96D1C2800210080B289B288429E
:100B7000F4D300F0FDF931BD38B5140063189BB211
:100B8000020092B289B280B200F0B2FB00F0DAF952
:100B9000002504E02E48006800F0D9F96D1C200003
:100BA000290080B289B28842F4D200F0E1F931BD67
:100BB000F8B504000D0016001F00320092B22900A3
:100BC00089B2200080B2FFF7BAFF320092B27919E1
:100BD00089B2200080B2FFF7B2FF3A0092B229003A
:100BE00089B2200080B2FFF7C7FF3A0092B2290015
:100BF00089B23419200080B2FFF7BEFFF1BD70B595
:100C000014001D006A18531E9BB22218521E92B285
:100C100089B280B200F06CFB00F094F9002604E089
:100C20000C48006800F093F9761C210089B2280076
:100C300080B241438E42F3D300F09AF970BD80B583
:100C400000F09EFB01BD00001800002020000020E5
:100C5000240000201C0000201400002008000020B8
:100C6000F8B504000D001600FFF7C8FE0700FFF7F7
:100C7000C5FE3200D2B2F988491C14FB01F189B2D9
:100C8000808815FB00F080B2FFF7DEFEF1BDF8B5FD
:100C900004000D001600FFF7B1FE0700FFF7AEFEDF
:100CA0003200F988491C14FB01F189B2808815FBD8
:100CB00000F080B2FFF728FFF1BD30B5016884680D
:100CC0004218416802EB5103C90703D54C4401E0C7
:100CD000491C08D19A4218BF12F9011B01D10C30EE
:100CE00030BD12F8015B002904F8015BF0D4491E05
:100CF000F7D5EFE77C4909888907FBD5C0B27B4966
:100D0000088079480088C007FBD578480088C0B2C1
:100D1000704780B501224FF48071754800F09CFB4C
:100D200000224FF48071724800F096FB2020FFF7FC
:100D3000E1FFE720FFF7DEFF01224FF480716C48EE
:100D400000F08AFB012000F0C9FB00224FF4807103
:100D5000674800F081FB2120FFF7CCFF4020FFF720
:100D6000C9FF01224FF48071614800F075FB01203A
:100D700000F0B4FB00224FF480715D4800F06CFB82
:100D80002220FFF7B7FF0020FFF7B4FF01224FF446
:100D90008071574800F060FB012000F09FFB0022AB
:100DA0004FF48071524800F057FB2320FFF7A2FF59
:100DB0000620FFF79FFF01224FF480714C4800F09E
:100DC0004BFB012000F08AFB00224FF48071484861
:100DD00000F042FB2420FFF78DFF0020FFF78AFF81
:100DE00001224FF48071424800F036FB012000F0F0
:100DF00075FB00224FF480713D4800F02DFB25204B
:100E0000FFF778FF0020FFF775FF01224FF4807194
:100E1000374800F021FB00224FF48071344800F085
:100E20001BFB2620FFF766FF0020FFF763FF012270
:100E30004FF480712E4800F00FFB642000F04EFB51
:100E400001BD10B5040000224FF48071284800F065
:100E500003FBA820FFF74EFF0020FFF74BFF207099
:100E60000020FFF747FF607001224FF48071204897
:100E700000F0F2FA012000F031FB00224FF4807103
:100E80001B4800F0E9FAAA20FFF734FF0020FFF723
:100E900031FFA0700020FFF72DFFE07001224FF41A
:100EA0008071134800F0D8FA012000F017FB0022EF
:100EB0004FF480710E4800F0CFFAAC20FFF71AFF14
:100EC0000020FFF717FF20710020FFF713FF60716C
:100ED00001224FF48071064800F0BEFA012000F0B4
:100EE000FDFA012010BD0000083001400C30014027
:100EF000000002401CB504006846FFF7A2FF210075
:100F0000684600F001F813BD10B44378027852EA45
:100F10000322C478837853EA04234479007950EAA1
:100F200004200A804B80888010BC7047002848BF8E
:100F3000404270475FF0C04108707047DFF8981377
:100F40000870704780B52C20FFF7F4FF01BD10B585
:100F500004002000000CC0B2FFF7F0FF2000000AE0
:100F6000C0B2FFF7EBFF2000C0B2FFF7E7FF10BDF4
:100F700080B50020FFF7DEFF01BDE0B5012138207C
:100F800000F0BAFA02208DF8040003208DF8050065
:100F900000208DF8060000208DF807004CF20300B9
:100FA00000906946CD4800F005FA0C220E21CB488E
:100FB00000F059FA0C220F21C84800F054FA0C2214
:100FC0000021C64800F04FFA0C220121C34800F06E
:100FD0004AFA4FF4F06000906946C14800F0EAF91F
:100FE0000C220721BE4800F03EFA0C220821BC4822
:100FF00000F039FA0C220921B94800F034FA0C2229
:101000000A21B74800F02FFAB020009002208DF896
:10101000040003208DF8050000208DF80600002054
:101020008DF807006946AD4800F0C4F90C22042190
:10103000AA4800F018FA0C220521A84800F013FA7B
:101040000C220721A54800F00EFA01200090694605
:10105000A44800F0AFF90C220021A24800F003FAE6
:101060008220009001208DF8040002208DF80500F8
:1010700000208DF8060000208DF807006946994889
:1010800000F098F907BD80B596B00121012000F06D
:1010900047FA0320009003200190032002900020D3
:1010A000039002200490022005905FF0805006908B
:1010B00000200790002008900020099000200A904E
:1010C00000200B9000200C9000200D9000200E902E
:1010D00000200F904FF480501090002011900020BD
:1010E000129000201390684614906846159007A847
:1010F00000F02AFA0121002000F0B1FA17B000BD7B
:1011000080B5FFF73AFFFFF7BEFF802076490880E1
:101110000220754908800A2000F0D0F902207349A6
:1011200008800A2000F0CAF902206F4908803220A6
:1011300000F0C4F90120FFF7FDFE322000F0BEF9F7
:101140001120FFF7F7FE782000F0B8F92620FFF70E
:10115000F1FE0420FFF7F2FEB120FFF7EBFE0A20BC
:10116000FFF7ECFE1420FFF7E9FEC020FFF7E2FED8
:101170000820FFF7E3FE0020FFF7E0FEC120FFF7A5
:10118000D9FE0520FFF7DAFEC520FFF7D3FE382091
:10119000FFF7D4FE3520FFF7D1FE3A20FFF7CAFE55
:1011A0000620FFF7CBFE2A20FFF7C4FE0020FFF742
:1011B000C5FE0020FFF7C2FE0020FFF7BFFE7F2024
:1011C000FFF7BCFE2B20FFF7B5FE0020FFF7B6FEB1
:1011D0000020FFF7B3FE0020FFF7B0FE9F20FFF7CF
:1011E000ADFE3620FFF7A6FE7020FFF7A7FEB72062
:1011F000FFF7A0FE0020FFF7A1FEF220FFF79AFE06
:101200000120FFF79BFEE020FFF794FE3F20FFF751
:1012100095FE2220FFF792FE2020FFF78FFE302060
:10122000FFF78CFE2920FFF789FE0C20FFF786FED2
:101230004E20FFF783FEB720FFF780FE3C20FFF72C
:101240007DFE1920FFF77AFE2220FFF777FE1E2091
:10125000FFF774FE0220FFF771FE0120FFF76EFE1C
:101260000020FFF76BFEE120FFF764FE0020FFF790
:1012700065FE1B20FFF762FE1F20FFF75FFE0F20B9
:10128000FFF75CFE1620FFF759FE1320FFF756FE0E
:101290003120FFF753FE8420FFF750FE4320FFF775
:1012A0004DFE0620FFF74AFE1D20FFF747FE2120D6
:1012B000FFF744FE3D20FFF741FE3E20FFF73EFED4
:1012C0003F20FFF73BFE2920FFF734FE01210020DD
:1012D00000F040F801BD000001000060000C024079
:1012E0000010024000140240181402401A14024078
:1012F000F8B504000D0016001F002A20FFF71AFEA3
:10130000300080B2A12800DBA026380080B28128FE
:1013100000DB80270020FFF711FE2000C0B2FFF79E
:101320000DFE0020FFF70AFE3000C0B2FFF706FEF8
:101330002B20FFF7FFFD0020FFF700FE2800C0B2C2
:10134000FFF7FCFD0020FFF7F9FD3800C0B2FFF702
:10135000F5FDF1BD70B504000D0020263620FFF725
:10136000E9FDADB2002D01D056F08006A4B2002CEC
:1013700001D056F040063000C0B2FFF7DFFD70BD6F
:1013800070B504008023A02200210020FFF7B0FFE9
:10139000FFF7D8FD002606E02000FFF7D8FD6D1C02
:1013A000A02DF9D3761C802E01D20025F8E7FFF797
:1013B000DFFD70BD30B4002200220022002347E090
:1013C00001229A400C681440944240D104680325DD
:1013D0001A00D2B252009540AC43046004680D7903
:1013E0001A00D2B2520095402C4304600A79012AB7
:1013F00002D00A79022A1AD1846803251A00D2B2CF
:1014000052009540AC43846084684D791A00D2B292
:10141000520095402C438460426801249C40A243C2
:10142000426042688C799C40A4B222434260C46806
:1014300003251A00D2B252009540AC43C460C46880
:10144000CD791A00D2B2520095402C43C4605B1C87
:10145000102BB5D330BC7047D2B2002A01D0018323
:1014600000E04183704770B400230023D2B211F032
:101470000703DBB29B009A400B009BB2DB1000EB32
:1014800083040B009BB2DB1000EB83031D6A0F2665
:1014900011F00703DBB29B009E40B54325620B00B1
:1014A0009BB2DB1000EB83031B6A1A4389B2C9109D
:1014B00000EB8100026270BC7047000038B5040088
:1014C000002504E04FF47A7000F008F86D1C280045
:1014D000210080B289B28842F4D331BD81B080B29C
:1014E00006214843009002E00098401E00900098BA
:1014F0000028F9D101B07047C9B2002907D0DFF840
:10150000401009680843DFF83810086007E0DFF88A
:101510003010096831EA0000DFF8241008607047D5
:10152000C9B2002905D00749096808430549086080
:1015300005E00449096831EA000002490860704783
:1015400030380240383802400021002100215FF08D
:101550002041026851F82220DFF83C110A4041681E
:101560000A4381680A43C1680A4301690A43416921
:101570000A4381690A43C1690A43016A0A43416A0D
:101580000A43816A0A43C16A0A43016B0A435FF056
:101590002041036841F82320816808290BD15FF0BE
:1015A0002041026851F8221051F040015FF02042C2
:1015B000036842F823105FF02041026801EB8201CA
:1015C0004A6812F04042416B09680A43416B49681E
:1015D00052EA0112416B896852EA0122416BC968E3
:1015E00052EA0142416B096952EA0152416B496971
:1015F00052EA0162416B89690A435FF02041036846
:1016000001EB83014A60C16AB1F5804F1FD1DFF859
:101610008410026851F82220DFF880100A40816BA4
:1016200009680A43816B496852EA0112816B896833
:1016300052EA0122816BC96852EA0142816B8969D1
:101640000A43DFF85010006841F8202006E07FF0E0
:101650007041DFF84020006842F820107047C9B29E
:1016600000290AD05FF0204151F8201051F001010B
:101670005FF0204242F820100AE05FF0204151F86C
:101680002020DFF81C100A405FF0204141F82020A4
:1016900070470000040100A08000F7FF0000F0CFB9
:1016A000FEFF0F000000000000000000000000002E
:1016B000000000001C101010000000000000F010DE
:1016C00010101010101010101C000000101010103E
:1016D0001010F0000000101010101010101010105A
:1016E000000000000000FC000000000000307878DE
:1016F00078300000FCFCFCCC848484CCFCFC000032
:101700000030484848300000FCFCFCCCB4B4B4CCF9
:10171000FCFC001C0C0C14103048483000384444C9
:1017200038107C101010002030382C2424206060E9
:10173000000C342C3424242C6C6000545428286C65
:1017400028285454101010101010FC101010000411
:101750000C1C3C7C3C1C0C04103810101010101099
:101760003810282828282828280028283C54545491
:10177000341414141414101010101010FC00000075
:10178000000000000000FC101010101010101010CD
:10179000F010101010381010101010101010101041
:1017A000101010101C10101000000000087C080021
:1017B000000000000000207C20000000000000006D
:1017C0000000000000000000000000000000000019
:1017D0000000000000000000000000000000000009
:1017E00000000000000000000000000000001010D9
:1017F0001010101010001010282800000000000029
:10180000000014147C282828FC50505010385450E4
:1018100030181414543824545828101028345448BC
:101820003048484830544848483410100000000000
:101830000000000008101020202020202010201080
:10184000100808080808081000000010107C102874
:10185000000000000010107C1010000000000000CC
:1018600000000000101000000000007C00000000DC
:101870000000000000000000101004040808101010
:1018800020204040384444444444444444381030C8
:10189000101010101010101038444404081020408C
:1018A000407C384444041804044444380818182878
:1018B0002848487C08087C40404078440404443868
:1018C000384440407844444444387C444404080844
:1018D00010101010384444443844444444383844C8
:1018E0004444443C0404443800001010000000103C
:1018F000100000001010000000101020000004086C
:10190000304030080400000000007C007C00000033
:1019100000004020180418204000384444040810F7
:101920001000101018244C545454545C40381010BB
:10193000102828287C44444478444444784444444F
:101940004478384444404040404444387844444417
:101950004444444444787C4040407C404040407C87
:101960007C404040784040404040384444405C44E3
:1019700044444C34444444447C444444444410105F
:101980001010101010101010080808080808084857
:1019900048304448485060505048484440404040D7
:1019A00040404040407C44446C6C6C54545444442B
:1019B0004444646454544C4C444438444444444483
:1019C0004444443878444444447840404040384497
:1019D0004444444444445438784444444478484457
:1019E0004444384444201008044444387C10101007
:1019F00010101010101044444444444444444438EB
:101A00004444444428282810101054545454545426
:101A100054282828444428281010282844444444A2
:101A200044282828101010107C04080810102020CA
:101A3000407C30202020202020202020545454FCA2
:101A40005454542828283010101010101010101062
:101A5000304800000000000000000000000000000E
:101A60000000000020100000000000000000000046
:101A70000030483848484834404040784444444462
:101A80004478000000384440404044380404043C9A
:101A900044444444443C0000003844447C404438BE
:101AA000102020702020202020200000003C4444F2
:101AB000443C04444040407844444444444410106E
:101AC0000010101010101010101000101010101036
:101AD00010104040404448506050484400101010DE
:101AE0001010101010100000006854545454545436
:101AF0000000007844444444444400000038444416
:101B00004444443800000078444444447840000091
:101B1000003C444444443C040000002C302020207D
:101B20002020000000384440380444380020207849
:101B30002020202020180000004444444444443C19
:101B4000000000444444282810100000005454545D
:101B50005438282800000044442810284444000039
:101B600000444444282810100000007C0408102081
:101B7000407C081010101060101010101010101081
:101B8000101010101010402020202018202020209D
:101B90000000000000344800000000784848484831
:101BA0004848487880B54848006850F47000464975
:101BB00008604648006850F0010044490860002071
:101BC0004349086041480168424801403F4801607C
:101BD0004148424908603D48006830F480203B4954
:101BE000086000203E49086000F005F85FF00060E2
:101BF0003C49086001BD82B00020019000200090A7
:101C00003248006850F48030304908602F4800683E
:101C100010F4003000900198401C019000980028BA
:101C200003D10198B0F5A04FF0D128480068800397
:101C300002D50120009001E00020009000980128CA
:101C40003ED12948006850F0805027490860274855
:101C5000006850F44040254908601D4800681C4950
:101C600008601B48006850F4004019490860184893
:101C7000006850F4A050164908601D4817490860D4
:101C80001248006850F08070104908600F480068E2
:101C90008001FBD540F20570164908600C480068C9
:101CA000800880000A4908600948006850F0020076
:101CB000074908600648006810F00C000828F9D1B0
:101CC00002B070470000000088ED00E000380240DC
:101CD00008380240FFFFF6FE1030002404380240AE
:101CE0000C38024008ED00E040380240007000402F
:101CF00008544007003C024010B5074979441831A8
:101D0000064C7C44163404E00A68081D11448847D8
:101D10000146A142F8D110BD2C000000380000009F
:101D20004EF68851CEF20001086840F47000086059
:101D3000BFF34F8FBFF36F8F4FF00070E1EE100ACB
:101D40007047000077EFFFFF04020000280000004A
:101D50000000002000F00DF8002801D0FFF7CCFFB4
:101D6000AFF300800020AFF30080FEF70DFA00F023
:101D700002F80120704700F001B80000074638461D
:101D800000F002F8FBE7000080B5AFF30080024AE4
:101D900011001820ABBEFBE72600020042616C6C0C
:101DA0002067616D653A204C43482032303137312D
:101DB00033303033360000000548014603B468462E
:101DC00080F30988AFF30080FFF7AAFFFFF7C2FF97
:101DD000A5EDF5FE0148804701480047A51B000816
:101DE000B91D0008FFF7FEBFFFF7FEBFFFF7FEBFFC
:101DF000FFF7FEBFFFF7FEBFFFF7FEBFFFF7FEBF17
:101E0000FFF7FEBFFFF7FEBFFFF7FEBFFFF7FEBF06
:101E1000FFF7FEBFFFF7FEBFFFF7FEBFFFF7FEBFF6
:101E2000FFF7FEBFFFF7FEBFFFF7FEBFFFF7FEBFE6
:101E3000FFF7FEBFFFF7FEBFFFF7FEBFFFF7FEBFD6
:101E4000FFF7FEBFFFF7FEBFFFF7FEBFFFF7FEBFC6
:101E5000FFF7FEBFFFF7FEBFFFF7FEBFFFF7FEBFB6
:101E6000FFF7FEBFFFF7FEBFFFF7FEBFFFF7FEBFA6
:101E7000FFF7FEBFFFF7FEBFFFF7FEBFFFF7FEBF96
:101E8000FFF7FEBFFFF7FEBFFFF7FEBFFFF7FEBF86
:101E9000FFF7FEBFFFF7FEBFFFF7FEBFFFF7FEBF76
:101EA000FFF7FEBFFFF7FEBFFFF7FEBFFFF7FEBF66
:101EB000FFF7FEBFFFF7FEBFFFF7FEBFFFF7FEBF56
:101EC000FFF7FEBFFFF7FEBFFFF7FEBFFFF7FEBF46
:101ED000FFF7FEBFFFF7FEBFFFF7FEBFFFF7FEBF36
:101EE000FFF7FEBFFFF7FEBFFFF7FEBFFFF7FEBF26
:101EF000FFF7FEBFFFF7FEBFFFF7FEBFFFF7FEBF16
:101F0000FFF7FEBFFFF7FEBFFFF7FEBFFFF7FEBF05
:101F1000FFF7FEBFFFF7FEBFFFF7FEBFFFF7FEBFF5
:101F2000FFF7FEBFFFF7FEBFFFF7FEBFFFF7FEBFE5
:101F3000FFF7FEBFFFF7FEBFFFF7FEBFFFF7FEBFD5
:101F4000FFF7FEBFFFF7FEBFFFF7FEBF0037FD0044
:101F5000003FFD0008A416000806000A000AE80079
:0400000508001DB919
:00000001FF
